:020000040000FA
:100000005022022031070000574F00003B0700003C
:100010003D0700003F07000041070000000000000E
:100020000000000000000000000000004307000086
:1000300045070000000000004707000049070000D6
:10004000914300009B430000A5430000AF43000024
:10005000B9430000E1430000EB430000F54300001A
:10006000FF43000009440000134400001D44000049
:1000700027440000314400003B4400004544000098
:100080004B0700004B0700004B0700004B07000028
:100090004B0700004B070000632200004B070000E5
:1000A0004B0700004B070000793D0000833D000036
:1000B0004B0700004B0700004B070000CF2000005B
:1000C0004B070000D92000004B070000E320000090
:1000D0004B070000ED2000004B070000072A00003E
:1000E0004B0700004B0700002938000033380000A0
:1000F0003D3800004B070000D14700004B070000CF
:10010000E7230000F1230000FB230000052400008A
:100110004B0700004B0700004B0700004B07000097
:100120004B0700004B070000AF3F00006F170000B7
:1001300079170000831700008D1700009717000043
:100140004B0700008D3D0000F72000004B0700002A
:10015000012100004B0700004B0700004B07000087
:100160004B070000172A00004B0700004B07000058
:100170004B0700004B0700004B0700004B07000037
:100180004B0700004B0700004B070000A74D000085
:10019000C34D00004B0700004B0700004B07000059
:1001A0004B0700004B0700004B0700004B07000007
:1001B0004B0700004B0700004B0700004B070000F7
:1001C0004B0700004B0700004B0700004B070000E7
:1001D0004B0700004B0700004B0700004B070000D7
:10040000FFFFFFFFFFFFFFFFFFFFFFFFFEFFFFFFFD
:1004100000F002F800F082F80AA090E8000C824494
:100420008344AAF10107DA4501D100F077F8AFF271
:10043000090EBAE80F0013F0010F18BFFB1A43F0C2
:1004400001031847F4CA000014CB00000A444FF01F
:10045000000C10F8013B13F0070408BF10F8014B23
:100460001D1108BF10F8015B641E05D010F8016B68
:10047000641E01F8016BF9D113F0080F1EBF10F8CC
:10048000014BAD1C0C1B09D16D1E58BF01F801CBEF
:10049000FAD505E014F8016B01F8016B6D1EF9D572
:1004A0009142D6D370470000002300240025002687
:1004B000103A28BF78C1FBD8520728BF30C148BFC7
:1004C0000B60704766290CF0B78265290CF0B48286
:1004D000642908F07D86782908F0B486632909F03C
:1004E000D484732909F0D984002070471FB50CF01B
:1004F0009EFA9DE8030009F0FBF909F02DFD0400C8
:10050000002000210BF022FC401C60600020002134
:100510000BF032FCE0601FBD10B510BD09F0FAFF12
:100520001146FFF7E3FF00F033FE0AF018F803B4BA
:10053000FFF7F2FF03BC0AF085F80000C0BA70476D
:100540007248006840F47000704908604CF2205016
:100550006F49C8814DF62810C8814FF4E9700880B2
:100560004FF08A706B4948640846406820F4403078
:1005700048606948006840F44020674908600620E8
:1005800066490870002048700846C07840F0E000D6
:10059000C8708020624908706048007B00F0FC0051
:1005A0005E49087300200871487100BF5B4880797C
:1005B00000F010000028F9D000BF5848807900F002
:1005C0000C000028F9D17047544A127802F0C0029A
:1005D000002A67D1514A527902F04002002A51D1D3
:1005E0004E4A127802F00402C2B94C4A127B02F061
:1005F00003020AB94B4801E04FF40040474A127821
:10060000C2F3C20301229A40D1B2B0FBF1F0434AD7
:10061000527802F030021AB1400901E04FF4004074
:100620003E4AD27802F0E00202F01F0343BB5211AF
:10063000082A25D2DFE802F004080C1014181C2048
:1006400000EB8002D0011CE000EB8002100218E0F9
:10065000C0EB0012D00114E000EB8002500210E069
:100660004FF4377250430CE04FF4B762504308E048
:1006700040F69502504304E040F67132504300E0EA
:1006800000BF38E0254A127902F01F02511C254AAA
:10069000B2FBF1F0214A527902F01F0202F1180177
:1006A000484328E01D4A127802F0C002402A11D1C6
:1006B0001A4A527802F0010212B94FF400401AE0CF
:1006C000164A127AC2F3420301229A40164BB3FB38
:1006D000F2F010E0114A127802F0C002802A09D12B
:1006E0000E4A127B02F003020AB90E4803E04FF4EF
:1006F000004000E07047074A526C012303EB12727E
:10070000B0FBF2F2094B1A6000BFF3E788ED00E09E
:100710000020054000800440007004400040064076
:100720000050064080F0FA0200093D000000002061
:100730000948804709480047FEE7FEE7FEE7FEE775
:10074000FEE7FEE7FEE7FEE7FEE7FEE704480549B1
:10075000054A064B704700004105000011040000E7
:10076000502200205022022050220120502201203D
:10077000FC4AFD4B1B68D054FB490968491CFA4AE6
:10078000116070470146002003E0F64A125C0A54EB
:10079000401CF54A12689042F7DB00220A54F24BE3
:1007A0001A60704730B589B0044604F10905A07994
:1007B00000F01F00E188C1F34511E288D20A2379D5
:1007C00003F01F03CDE90532CDE90710A088C0F37F
:1007D0004310A188491201F2BC712268CDE901528F
:1007E000CDE90310207A00F0040008B1532000E0A6
:1007F0005F200090207A00F0020008B1482000E05D
:100800005F200346207A00F0010008B1522000E08A
:100810005F200246207A00F0100008B1D3A000E06B
:10082000D3A00146D3A008F063FC09B030BDF0B5F9
:100830008BB004462146684606F085FB060043D18E
:10084000204608F026FFC5B231E000BFD74FA7F120
:100850000900FFF7A7FFA7F10900007A00F01000D8
:10086000B8B1D3480088401CD14908802F2060557A
:100870006119481C394608F0E8FE2146CDA008F071
:1008800037FC2046FFF7D3FF0646002060556EB1C7
:1008900019E0CC480088401CCA490880C348093880
:1008A0000068C94909680844C749086000BFBF49D2
:1008B0000939684606F089FB060004D1BB480938AF
:1008C000407A0028C1D100BF30460BB0F0BD7CB5E6
:1008D000BE48BF4908600024BEA008F009FCC1A0C2
:1008E00008F006FCC64804F041FD18B1C5A008F0A8
:1008F000FFFB7CBD04F079FE06463146C7A008F038
:10090000F7FB0022C9A1B248006805F01AFFC849E8
:10091000087000BF0846007820B108460178C5A0DD
:1009200008F0E6FB00BFC8A008F0E2FB0122CCA162
:10093000CF4805F02EFFBE49087000BF084600787A
:1009400020B108460178BBA008F0D2FB00BF18E038
:1009500001AB4FF48062C749C54806F00CF8B449B2
:1009600008700846007808B9019850B900BFB0482F
:10097000007820B1AE480178AEA008F0B9FB00BF06
:1009800000E0E5E700BFBB49BBA008F0B1FBB848F9
:1009900006F006FAA649087000BF0846007820B1A4
:1009A00008460178A3A008F0A3FB00BF00229FA186
:1009B000104605F0C6FE9E49087000BF0846007844
:1009C00020B1084601789BA008F092FB00BF08F018
:1009D000CFF9044614B9ACA008F08AFBA54807F08B
:1009E00029FC044614B9AFA008F082FB204608F0A9
:1009F00015F8B149086008460168B0A008F078FB16
:100A00000020B349086037E0B248B14A126850F894
:100A10002210204608F014F80546AD48006800EBA7
:100A2000C000AD4901EB80002030A9490090096861
:100A300001EBC101A84E06EB810101F10A03A449B3
:100A4000096801EBC10106EB8102A4A1286908F045
:100A5000C1FC9F48006800EBC000314601EB8000FC
:100A600000F10A029A4801689FA008F041FB9848EB
:100A70000068401C96490860954800688E490968DE
:100A80008842C1DB00209D490860204606F082FDB7
:100A900000BF2EE7F8B504460D464C484C490860A7
:100AA000574804F063FC00B1F8BD00225FA148483C
:100AB000006805F046FE5E49087000BF08460078F1
:100AC00020B1084601785BA008F012FB00BF13229A
:100AD0002946674805F05DFE55490870294688A0FB
:100AE00008F006FB00BF5248007820B1504801785A
:100AF00050A008F0FDFA00BF5D48C16806F061F93A
:100B00004B49087000BF0846007820B108460178BC
:100B100048A008F0EDFA00BF204608F0BAFD0646EE
:100B20006B4632462146524805F0FBFF40490870AB
:100B300000BF0846007820B1084601783DA008F0C3
:100B4000D7FA00BF4A4806F02BF93949087000224D
:100B500036A1104605F0F5FD3549087000BF08467E
:100B60000078D7E02C0100200800002064697200A2
:100B700066696C00202020202573202D2025632508
:100B8000632563202D202573202D20256442797450
:100B90006573202D2025642D25642D256420256472
:100BA0003A25643A25640D0A00000000991A0020D5
:100BB000A6000020656E746572206469723A257320
:100BC0000D0A0000A4000020A00000205802002010
:100BD00020000020464154465320746573740D0A6A
:100BE00000000000706C6561736520696E7365724A
:100BF0007420534420636172642E2E2E0D0A00006F
:100C0000002D31015344206361726420696E697460
:100C1000206661696C6564210D0A000053442073ED
:100C2000697A653A25644D420D0A0000303A0000A9
:100C30001D0000206661746673206572726F723ADF
:100C400025640D0A000000006F70656E206F722031
:100C50006372656174652066696C650D0A00000049
:100C6000303A2F75617274312E63666700000000A0
:100C70008804002090160020636F6E666967206606
:100C8000696C653A257300004A534F4E206F626AC3
:100C900065637420637265617465206661696C6563
:100CA000642E0A004A534F4E2070617273652066AD
:100CB00061696C65642E0A00840000207461736BA6
:100CC000206E756D6265723D25640D0A000000009E
:100CD0008C00002024000020C80600202573202559
:100CE00073202564000000006E756D3D25643A7424
:100CF00061736B2069732025730D0A008800002042
:100D000066696C656E616D652069732025730D0AD7
:100D10000000000028B108460178AFF2E80008F0B2
:100D2000E7F900BF00BFBFE610B50446F74800680A
:100D300000EBC000F64901EB8000007B302830DD7D
:100D4000F248006800EBC00001EB8000007B39280E
:100D500027DAEE48006800EBC00001EB8000807AE3
:100D60002070EA48006800EBC00001EB8000007BC7
:100D70003038E649096801EBC101E54A02EB81011F
:100D8000C97A303901EB810100EB41006060DF4836
:100D9000006800EBC000114601EB8000407B207230
:100DA00019E0DA48006800EBC000D94901EB800087
:100DB000807A2070D548006800EBC00001EB80000D
:100DC000C07A30386060D148006800EBC00001EBA9
:100DD0008000007B207220784138052821D2DFE88E
:100DE00000F003213F5D7B0004220020616800F0D9
:100DF00062FB207A48280AD12178C6A0626808F0F0
:100E000077F921790122104600F064FB09E021788E
:100E1000C5A0626808F06CF921790022012000F079
:100E200059FB77E004220120616800F044FB207A3E
:100E300048280AD12178B7A0626808F059F92179C9
:100E40000122104600F046FB09E02178B6A0626856
:100E500008F04EF921790022012000F03BFB59E017
:100E600004220220616800F026FB207A48280AD17B
:100E70002178A8A0626808F03BF921790122104688
:100E800000F028FB09E02178A7A0626808F030F99B
:100E900021790022012000F01DFB3BE00422032009
:100EA000616800F008FB207A48280AD1217899A0CF
:100EB000626808F01DF921790122104600F00AFB52
:100EC00009E0217898A0626808F012F921790022DF
:100ED000012000F0FFFA1DE004221046616800F0D6
:100EE000EAFA207A48280AD121788AA0626808F0B4
:100EF000FFF821790122104600F0ECFA09E0217890
:100F000089A0626808F0F4F821790022012000F03D
:100F1000E1FA00BF00BF10BD70B504467B49096807
:100F200001EBC1017A4A02EB810101F10A0008F0EC
:100F3000B0FB064600250CE07448006800EBC000DA
:100F4000734901EB80000A30415D04F1080041550E
:100F50006D1CB542F0DB0D2104F1080081550A2219
:100F6000711C42540022B11C425408F092FB064608
:100F7000002507E004F10800415D7148006800F0B9
:100F800030FC6D1CB542F5DB70BD10B504465F4802
:100F9000006800EBC0005E4901EB80000A30206071
:100FA000AFF2A420216808F0A3F86648FFF7EAFB37
:100FB000002803DD63482168FFF76CFD10BD10B504
:100FC0005248016860A008F093F85048006800EBB0
:100FD000C0004F4901EB800000F10A024B48016854
:100FE000AFF2FC2008F084F84848006800EBC0002D
:100FF000474901EB8000006A012814D15649434A51
:10100000126801EB8200FFF7C0FF40480068401CF7
:101010003E490860096801EB4101504A02EB81003A
:10102000FFF782FE11E03948006800EBC000384944
:1010300011F82000492808D13449096801EB410121
:10104000464A02EB8100FFF76FFE3048006800EB74
:10105000C0002F4911F82000532811D12B480068F7
:1010600000EBC00001EB80004078532808D12749ED
:101070000968C1EBC1013A4A02EB8100FFF74CFF5E
:101080002248006800EBC000214911F820005328D5
:101090000FD11E48006800EBC00001EB80004078D3
:1010A000462806D12C49194A126801EB8200FFF745
:1010B0006CFF16480068401C144908600846006828
:1010C0002849096888420CDB00221146012001F002
:1010D00016F900200D49086003F0CAFE22A008F0AE
:1010E00007F810BD10B525A008F002F82749012027
:1010F00001F0FBF8AFF23911012001F054F901229F
:101100000021104601F0FBF810BD00008C0000200B
:10111000C8060020504F52542563202025642069C2
:1011200073206F6E2E0D0A00504F525425632020FD
:101130002564206973206F66662E0D0A000000008A
:1011400004000020C201002025643A61206E65770A
:10115000207069742E0D0A0068160020D814002033
:101160005015002084000020656E74657220535471
:101170004F50204D4F44452E0D0A000061206E65F2
:101180007720706974322E0D0A00000040420F0073
:1011900003F0D0FE4FF4165149F6D44000F0EFFEB4
:1011A000134908601349042000F0D1FE01220221F6
:1011B000042000F0E8FD0E4801680FA007F098FF3A
:1011C000FFF785FB13A007F093FF00201649086086
:1011D000164901F08AF8AFF2F301002001F0E3F8BC
:1011E00001220021084601F08AF800BFFEE7000056
:1011F0000400002071070000554152542564204F1F
:101200004B212048656C6C6F204B696E6574697367
:101210000D0A00005265616420636F6E6669672085
:1012200066696C652E0D0A008C000020C0E1E400A8
:1012300010B5FC4B9B6BFC4C54F820402343F94CFD
:10124000A363FA4B53F8203053F8213023F4E063C2
:10125000F64C54F8204044F82130F44B53F8203039
:1012600053F821304FF4E06404EA02242343EF4CA6
:1012700054F8204044F8213010BD10B5E94B9B6B69
:10128000E94C54F820402343E64CA36322B1012AE1
:101290000FD0022A3FD125E0E44B53F8203053F819
:1012A000213023F00203E14C54F8204044F821306F
:1012B00032E0DE4B53F8203053F8213043F0020384
:1012C000DA4C54F8204044F82130D84B53F8203001
:1012D00053F8213043F00103D44C54F8204044F833
:1012E000213019E0D14B53F8203053F8213043F02E
:1012F0000203CE4C54F8204044F82130CB4B53F835
:10130000203053F8213023F00103C84C54F820401A
:1013100044F8213000E000BF00BF10BD10B5C14B44
:101320009B6BC14C54F820402343BE4CA36362B175
:10133000BE4B53F8203053F8213043F02003BB4C10
:1013400054F8204044F821300BE0B84B53F82030DB
:1013500053F8213023F02003B44C54F8204044F8D3
:10136000213010BD10B5AF4B9B6BAF4C54F82040F3
:101370002343AC4CA36362B1AC4B53F8203053F819
:10138000213043F01003A94C54F8204044F8213098
:101390000BE0A64B53F8203053F8213023F0100314
:1013A000A24C54F8204044F8213010BD10B59D4B9C
:1013B0009B6B9D4C54F8204023439A4CA363012A15
:1013C0000BD19B4B53F820305B6901248C402343A5
:1013D000974C54F8204063610AE0954B53F8203055
:1013E0005B6901248C40A343914C54F82040636115
:1013F00010BD10B504466078052854D2DFE800F02F
:10140000031323334300217920780022FFF735FFAF
:10141000217920780022FFF781FF217920780022AE
:10142000FFF7C4FF40E0217920780222FFF725FF73
:10143000217920780022FFF771FF2179207800229E
:10144000FFF7B4FF30E0217920780122FFF715FF84
:10145000217920780022FFF761FF2179207800228E
:10146000FFF7A4FF20E0217920780122FFF705FF94
:10147000217920780122FFF751FF2179207801227C
:10148000FFF794FF10E0217920780022FFF7F5FEA6
:10149000217920780022FFF741FF2179207801226D
:1014A000FFF784FF00E000BF00BF21792078012210
:1014B000FFF7BEFE10BD7CB504460D461646E0B2F1
:1014C0008DF800008DF8016001956846FFF791FFE7
:1014D000E0B27CBD10B5534B9B6B534C54F820408D
:1014E0002343504CA3635AB1514B53F820305B68EF
:1014F00001248C4023434E4C54F8204063600AE0A2
:101500004B4B53F820309B6801248C402343484CBC
:1015100054F82040A36010BD454A52F8202052687C
:1015200001238B401A43424B53F820305A607047D6
:101530003F4A52F82020926801238B401A433C4BCB
:1015400053F820309A6070470246394850F822001C
:101550004069C84000F0010038B1354850F8220019
:101560000068C84000F001007047314850F8220080
:101570000069C84000F00100F6E72D4A52F820202B
:10158000D26801238B401A43294B53F82030DA608C
:1015900070470146264850F8210000697047244AE8
:1015A00052F82020116070472DE9F04104460D46A5
:1015B00016461F461B48806B1B4951F824100843F0
:1015C00018498863194850F8240050F8250020F481
:1015D0007020164951F8241041F8250067B91549C3
:1015E000085700F01F0201219140134A430942F8B5
:1015F000231000BFBDE8F081082E7DD2DFE806F0A1
:10160000041E2B38495A6B7D084850F8240050F8C6
:10161000250040F48030054951F8241041F8250098
:101620007DE000000080044054CB000040CB00006F
:101630002CCB000068CB000080E100E05E4850F851
:10164000240050F8250040F400305B4951F8241084
:1016500041F8250063E0584850F8240050F8250070
:1016600040F44030544951F8241041F8250056E028
:10167000514850F8240050F8250040F400204E490D
:1016800051F8241041F825004C49085700F088F81B
:1016900045E0494850F8240050F8250040F4102057
:1016A000454951F8241041F825004449085700F0F5
:1016B00077F834E0404850F8240050F8250040F412
:1016C00020203D4951F8241041F825003B49085796
:1016D00000F066F823E0384850F8240050F8250060
:1016E00040F43020344951F8241041F825003349A2
:1016F000085700F055F812E010E02F4850F8240089
:1017000050F8250040F440202B4951F8241041F8AE
:1017100025002A49085700F043F800E000BF00BF49
:1017200000BF67E7264A926B264B53F820301A43D6
:10173000234B9A6311B1244A42F82010704770B5C8
:1017400004461D4850F82400D0F8A0504FF0FF3058
:10175000194951F82410C1F8A0001B4850F8240082
:1017600020B1194850F824102846884770BD10B59C
:101770000020FFF7E4FF10BD10B50120FFF7DFFFE9
:1017800010BD10B50220FFF7DAFF10BD10B5032021
:10179000FFF7D5FF10BD10B50420FFF7D0FF10BD37
:1017A00000F01F02012191404209920002F1E02263
:1017B000C2F800117047000040CB000068CB000069
:1017C0000080044054CB0000A81A00200146FE48C7
:1017D00050F82100007CC0F30210FC4A52F82000AF
:1017E000704730B503460C46F74850F82300007C9C
:1017F00000F0800050B100BF1846FFF7E7FFF24944
:1018000051F82310097D8842F6D908E000BFEE4860
:1018100050F82300007900F080000028F7D0EA4952
:1018200051F82310CC71C4F3002555B1E64850F8A7
:101830002300807940F04000E34951F8231088717B
:1018400009E0E14850F82300807920F04000DE49AB
:1018500051F82310887130BD30B504460D46A1B251
:10186000DB480078FFF7BDFF204630BD10B50246CB
:101870000023D54850F82200007900F0200078B10C
:10188000D14850F822008079C309180208800888DE
:10189000CD4C54F82240E47920430880002010BD4C
:1018A0000120FCE718B5044600BF6946C848007827
:1018B000FFF7DCFF0028F8D1BDF80000C0B218BD6A
:1018C00030B505460C4604E014F8011B2846FFF726
:1018D00088FF20780028F7D130BDF0B504460D46CA
:1018E000B4FBF5F028B1B4FBF5F629463046FFF716
:1018F000F4FFB4FBF5F005FB1047B6480068C15D86
:10190000B3480078FFF76DFFF0BD0FB470B5064621
:1019100006AD00BF08E01CB9002070BC5DF814FBE8
:1019200021463046FFF75DFF059810F8011B0C4675
:1019300005902529EFD1059810F8014B0590642CEE
:1019400001D06C2C03D10A212868FFF7C6FF6F2C49
:1019500001D0782C08D16F2C01D1082200E0102290
:1019600011462868FFF7B9FF732C03D13046296868
:10197000FFF7A6FF2D1DCDE72DE9F041044601201C
:1019800003F042FA0746207910B12079012803D1EB
:10199000002003F039FA07462760207900EB400069
:1019A0008D4951F820000068217901EB41018A4AF4
:1019B00002EB810149680843217901EB410152F8AA
:1019C000211008602079804951F82000C07820F06B
:1019D0000C0021797C4A52F82110C870A1680901D5
:1019E0002068B0FBF1F085B220684001A1680901D0
:1019F000B0FBF1F0202101FB1500C6B220791146A1
:101A000051F82000007820F01F00217952F82110B1
:101A100008702079114651F8200040780020217983
:101A200052F8211048702079114651F82000807A30
:101A300020F01F00217952F8211088722079114678
:101A400051F820000078C5F304210843217952F8A9
:101A500021100870217952F821104D70207911461B
:101A600051F82000807A06F01F010843217952F8CE
:101A700021108872207B20B102281AD0032848D177
:101A80002FE02079504951F82000807820F00200A2
:101A900021794D4A52F8211088702079114651F869
:101AA0002000807820F01000217952F821108870F1
:101AB00030E02079444951F82000807840F002005D
:101AC0002179414A52F8211088702079114651F845
:101AD0002000807820F00100217952F821108870D0
:101AE00018E02079384951F82000807840F0020051
:101AF0002179354A52F8211088702079114651F821
:101B00002000807840F00100217952F8211088707F
:101B100000E000BF00BF607B10B101287BD136E040
:101B20002079294951F82000807800F00200B0B1F6
:101B3000207951F82000807840F010002179224A65
:101B400052F8211088702079114651F82000807ACF
:101B500020F02000217952F82110887216E02079B7
:101B6000194951F82000807820F010002179164A98
:101B700052F8211088702079114651F82000807A9F
:101B800020F02000217952F82110887244E0207959
:101B90000D4951F82000807800F0020098B12079BA
:101BA00051F82000807840F010002179064A52F860
:101BB000211088702079114651F82000807A40F079
:101BC000200021790AE00DE070CB0000D8CB0000A6
:101BD000A8000020B400002088CB000052F821109B
:101BE000887216E02079FE4951F82000807840F094
:101BF00010002179FA4A52F8211088702079114694
:101C000051F82000807A20F02000217952F821102C
:101C1000887201E0FFE700BF00BF2079F04951F86A
:101C20002000407920F020002179ED4A52F821105F
:101C300048712079114651F82000C07840F00C001E
:101C4000217952F82110C870E648007810B1207947
:101C5000E54908700020E3490870BDE8F08100BF45
:101C6000DF4951F82010097901F080010029F7D0EF
:101C7000DB4951F82010C97821F00C01D84A52F8FC
:101C80002020D17000EB4001D84A52F82110096899
:101C900000EB4002D54B03EB82025268914300EB0C
:101CA000400253F8222011607047CF4A10707047ED
:101CB00051B1CB4A52F82020127C42F08002C84B2E
:101CC00053F820301A7409E0C54A52F82020127CDB
:101CD00022F08002C24B53F820301A74704751B181
:101CE000BF4A52F82020127C42F00802BC4B53F845
:101CF00020301A7409E0BA4A52F82020127C22F0EF
:101D00000802B74B53F820301A7470470146B448A4
:101D100050F82100007C00F00700B54A52F820007E
:101D20007047AF4A52F82020D27822F00802AC4B1C
:101D300053F82030DA70AA4B53F82030D974A84AEF
:101D400052F82020D27842F00802A54B53F82030F8
:101D5000DA707047A24A52F82020D27822F00402AA
:101D60009F4B53F82030DA709D4B53F82030597553
:101D70009B4A52F82020D27842F00402984B53F844
:101D80002030DA70704770B504460E46154604EBF5
:101D90004400964951F82000006804EB4401934A3E
:101DA00002EB81014968084304EB440152F8211019
:101DB0000860052E73D2DFE806F003391E66940032
:101DC00055B1874850F82400C07840F0800084491D
:101DD00051F82410C87009E0814850F82400C078F8
:101DE00020F080007E4951F82410C87081490857BE
:101DF00000F08BF991E055B1794850F82400C07893
:101E000040F02000764951F82410C87009E0744869
:101E100050F82400C07820F02000714951F82410B7
:101E2000C8707449085700F070F976E055B16C48F5
:101E300050F82400C07840F08000694951F824101F
:101E4000C87009E0664850F82400C07820F080008F
:101E5000634951F82410C87055B1614850F8240006
:101E6000C07A40F080005E4951F82410C87209E041
:101E70005B4850F82400C07A20F08000584951F89F
:101E80002410C87249E05DB1554850F82400C0786C
:101E900040F02000524951F82410C8700AE03BE09D
:101EA0004F4850F82400C07820F020004C4951F8E9
:101EB0002410C87055B14A4850F82400C07A40F048
:101EC0002000474951F82410C87209E0444850F8EE
:101ED0002400C07A20F02000414951F82410C87233
:101EE0001BE055B13E4850F82400C07840F0100087
:101EF0003B4951F82410C87009E0394850F82400D3
:101F0000C07820F01000364951F82410C8703949C3
:101F1000085700F0FAF800E000BF00BF70BD10B530
:101F200000EB4002314B53F82220126800EB4003D3
:101F30002E4C04EB83035B681A4300EB400354F818
:101F400023301A6011B12C4A42F8201010BD10B590
:101F500000EB4002254B53F82220126800EB4003AF
:101F6000224C04EB83035B681A4300EB400354F8F4
:101F700023301A6011B1214A42F8201010BD73B508
:101F800084B00E4604AC0296207800F007008DF86D
:101F9000040000208DF80C008DF80D0000250DE0E8
:101FA0002388C3F38212C3F344232B44D9B223788A
:101FB000C3F3C200FFF73CF9681CC5B22068C0F348
:101FC0008430A842ECDC6846FFF7D6FC217801F0AB
:101FD00007000021FFF76CFE217801F007000FE0F9
:101FE00070CB0000B8000020A800002088CB0000C3
:101FF000D8CB0000D0CB0000BC1A0020D41A00209F
:102000000021FFF76CFE207800F0070006B070BDDD
:102010001CB50446424850F82400007900F08000C6
:10202000A8B13F4850F82400C07800F0800070B19B
:102030003C4850F8240020B13A4850F8241001A838
:102040008847BDF80400364951F82410C871344857
:1020500050F82400007900F02000A8B1304850F872
:102060002400C07800F0200070B12D4850F8240002
:10207000C07901902C4850F8240028B12A4850F823
:102080002410BDF804008847254850F82400007942
:1020900000F0080020B1224850F82400C0790090D8
:1020A0001F4850F82400007900F0100070B11C485F
:1020B00050F82400C07900901B4850F8240028B143
:1020C000194850F824104FF6FF7088471CBD10B512
:1020D0000020FFF79DFF10BD10B50120FFF798FF0E
:1020E00010BD10B50220FFF793FF10BD10B50320FF
:1020F000FFF78EFF10BD10B50420FFF789FF10BD5C
:1021000010B50520FFF784FF10BD00F01F0201216C
:1021100091404209920002F1E022C2F8001170479A
:1021200070CB0000BC1A0020D41A002072B64CF20A
:1021300020505349C8814DF62810C88162B67047B7
:102140002DE9F0410446012002F05EFE074640F210
:10215000D316207810B1012806D102E026F0080637
:1021600003E046F0080600E000BF00BFFFF7DEFF17
:10217000F8084FF47A71B0FBF1F0616800FB01F5EB
:10218000280C3F498880CD80F8084FF47A71B0FB65
:10219000F1F0A16800FB01F5280C394908814D8157
:1021A0004FF4E060C88246F001060E80BDE8F08181
:1021B0003EB5044600208DF80000019460080290AE
:1021C0006846FFF7BDFF3EBD10B50446FFF7AEFF02
:1021D000012C06D12A48008840F0040028490880D4
:1021E00005E02748008820F0040025490880012CDC
:1021F0000AD11620012181404209920002F1E02219
:10220000C2F8001100BF08E01620012181401D4ADC
:10221000430942F8231000BF00BF10BD08B11A499E
:10222000086070471648808A70474FF6FF7014495F
:10223000888270471249098A08041149498A08436B
:10224000704772B64AF202610D4A91814BF28041A9
:10225000918162B6002001E000BF401C1428FBD32E
:10226000704710B50648408840F400400449488053
:102270000548006810B104490868804710BD000097
:102280000020054080E100E0BC00002010B50446BD
:102290005F48C06B40F400005D49C863012002F054
:1022A000B3FD5C490860084600685B49B0FBF1F08B
:1022B000584908606068096848435849227801EB2A
:1022C000021108605548217800EB0110806840F049
:1022D00001015248227800EB0210816050480068EA
:1022E00020F002004E49086010BD7CB505460C4642
:1022F0008DF8005001946846FFF7C8FF7CBD30B5EB
:102300000B464349C96B41F40001414CE1636AB19A
:10231000444C215601F01F050124AC404D09AD008D
:1023200005F1E025C5F8004100BF00BF52B13B49AF
:1023300001EB0011896841F00204384901EB0011FA
:102340008C6009E0354901EB0011896821F0020435
:10235000324901EB00118C604AB9304901EB0011A0
:10236000C96841F001042D4901EB0011CC6030BD7A
:102370002A4901EB0011896821F00102274901EB8C
:1023800000118A60254901EB0011896841F00102C2
:10239000224901EB00118A60704701461F4800EB9B
:1023A0000110406870471A4AD26B42F40002184B81
:1023B000DA6311B11C4A42F82010704710B5044688
:1023C000164800EB0410C06840F00101134800EB10
:1023D0000410C160144850F8240018B1124951F893
:1023E0002400804710BD10B50020FFF7E7FF10BDA7
:1023F00010B50120FFF7E2FF10BD10B50220FFF776
:10240000DDFF10BD10B50320FFF7D8FF10BD0000A1
:1024100000800440C000002040420F0000710340D3
:1024200000700340F4CB0000EC1A00200246F6488E
:1024300050F8220050F8210000F0800008B1002080
:1024400070470120FCE730B50146EF4850F8210005
:10245000406A40F04000EC4D55F821506862EA486F
:1024600050F82100406A40F08000E74D55F82150B7
:102470006862002400E0641CE4488442FBD3E24824
:1024800050F82100406A00F0400008B1012030BD42
:102490000022DD4850F82100C06C0244DA4850F8B0
:1024A0002100806C0244D84850F82100406C02445E
:1024B000D54850F82100006C0244D34850F8210060
:1024C000C06B0244D04850F82100806B02444FF4A6
:1024D000004040EA52020023CB4850F82100C06E71
:1024E0000344C94850F82100806E0344C64850F8A0
:1024F0002100406E0344C44850F82100006E03449C
:10250000C14850F82100C06D0344BF4850F8210075
:10251000806D03444FF4004040EA5303BA4850F83A
:102520002100406A20F08000B74D55F821506862C4
:10253000B54850F82100C262B34850F82100036347
:102540000020A4E710B50446206800EB4000B04925
:1025500051F820000068216801EB4101AC4A02EB10
:10256000810149680843216801EB410152F82110BB
:102570000860A549206851F82000806820F06000BC
:10258000A14A216852F8211088601146206851F84C
:10259000200080686179602202EA411108439A4A6A
:1025A000216852F8211088601146206851F82000F7
:1025B000806840F08000216852F821108860114640
:1025C000206851F82000006A20F00300216852F8CA
:1025D000211008621146206851F82000006AA17A93
:1025E00001F003010843216852F8211008621146E6
:1025F000206851F82000806820F00C00216852F813
:10260000211088601146206851F820008068A17967
:102610000C2202EA810108437B4A216852F821100A
:102620008860207901280BD11146206851F82000DC
:10263000006A40F04000216852F8211008620BE067
:102640007149206851F82000006A00F040006E4A8D
:10265000216852F821100862207A60B96A4920681E
:1026600051F82000406A40F00800674A216852F89B
:10267000211048620BE06449206851F82000406A4C
:1026800020F00800604A216852F821104862607A00
:10269000052878D2DFE800F00310315478005A4959
:1026A000206851F82000406A20F00400564A216852
:1026B00052F8211048628BE05349206851F82000FD
:1026C000406A40F00400504A216852F821104862E4
:1026D0001146206851F82000406A20F0030021686C
:1026E00052F8211048621146206851F82000406AD3
:1026F000216852F8211048626AE04349206851F885
:102700002000406A40F004003F4A216852F821103E
:1027100048621146206851F82000406A20F003000A
:10272000216852F8211048621146206851F82000B3
:10273000406A40F00100216852F82110486247E0E9
:102740003149206851F82000406A40F004002E4AC8
:10275000216852F8211048621146206851F8200083
:10276000406A20F00300216852F8211048621146A7
:10277000206851F82000406A40F00200216852F8B9
:102780002110486224E022E01F49206851F820000F
:10279000406A40F004001C4A216852F82110486247
:1027A0001146206851F82000406A20F0030021689B
:1027B00052F8211048621146206851F82000406A02
:1027C00040F00300216852F82110486200E000BF89
:1027D00000BF2068FFF737FE10BD51B10A4A52F81A
:1027E0002020126A42F04002074B53F820301A6250
:1027F00009E0054A52F82020126A02F04002024B1A
:1028000053F820301A627047F8CB0000A086010010
:1028100000CC000049B9844A52F82020D26822F046
:102820001002814B53F82030DA60012909D17E4A29
:1028300052F82020D26842F010027B4B53F820302F
:10284000DA60704773B584B00E4604AC207800F0AF
:102850000700019001208DF809008DF80A60002022
:102860008DF808008DF80B0001208DF80C00002079
:102870008DF80D008DF80E00002518E02388C3F3B5
:102880008212C3F344232B44D9B22378C3F3C2008A
:10289000FEF7CEFC2288C2F344222A44D1B2227829
:1028A000C2F3C2000022FEF7E8FC681CC5B2206833
:1028B000C0F38430A842E1DC01A8FFF743FE2268A0
:1028C000110E227802F00700FFF7A4FF207800F035
:1028D000070006B070BD10B5534B53F8203053F8C5
:1028E000223023F01F03504C54F8204044F822308B
:1028F0004D4B53F8203053F8223001F01F0423438E
:10290000494C54F8204044F8223010BD0246464855
:1029100050F82200103050F82100704771B56C4615
:10292000207800F007052068C0F3C4460022314635
:102930002846FFF7D0FF00BF3B4850F8250000684D
:1029400000F080000028F7D000212846FFF7DEFFC6
:1029500078BD70B5134633B1012B1CD0022B25D0A6
:10296000032B48D13CE0314C225602F01F050124D4
:10297000AC402F4D560945F8264000BF2A4A52F870
:10298000202052F8212022F04002274C54F8204009
:1029900044F8212030E0244A52F82020126A22F024
:1029A0000402214C54F82040226225E01E4A52F8CD
:1029B000202052F8212042F040021B4C54F82040C5
:1029C00044F82120194C225602F01F050124AC4086
:1029D0005509AD0005F1E025C5F8004100BF0BE049
:1029E000114A52F82020126A42F004020E4C54F8A8
:1029F0002040226200E000BF00BF70BD11B10D4A4F
:102A000042F82010704710B50A48006810B1094913
:102A10000868804710BD10B50648406810B10549E8
:102A20004868804710BD0000F8CB000018CC0000BB
:102A300080E100E0C400002030B500EB4003FE4C14
:102A400054F823301B6800EB4004FB4D05EB840475
:102A50006468234300EB400455F8244023600023BE
:102A6000F64C54F820402360F44B53F820305B6D53
:102A700043F00403F14C54F8204063650023EF4C0D
:102A800054F820406360ED4C54F82040E364EB4B75
:102A900053F8203099604FF0FF33E84C54F8204051
:102AA000C4F8983030BD014609B1012901D1002098
:102AB0007047022901D0032901D10120F8E7042938
:102AC00001D0052901D10220F2E70320F0E72DE92A
:102AD000F04104460E4615461F464FF00008062DED
:102AE00034D2DFE805F0030B131B232B3046FFF72E
:102AF000DAFFC100012000FA01F828E03046FFF7B4
:102B0000D2FFC100022000FA01F820E03046FFF7B2
:102B1000CAFFC100042000FA01F818E03046FFF7B0
:102B2000C2FFC100102000FA01F810E03046FFF7A4
:102B3000BAFFC100202000FA01F808E03046FFF794
:102B4000B2FFC100402000FA01F800E000BF00BF62
:102B5000012F0AD1B94850F82400406E40EA08001D
:102B6000B64951F82410486609E0B44850F82400EA
:102B7000406E20EA0800B14951F824104866BDE8CB
:102B8000F08110B512B1012A3AD11CE0AB4B53F8D9
:102B900020300C3353F8313023F00404A74B53F8A2
:102BA00020300C3343F83140A44B53F820300C3321
:102BB00053F8313043F00804A04B53F820300C3365
:102BC00043F831401DE09D4B53F820300C3353F84F
:102BD000313043F00404994B53F820300C3343F860
:102BE0003140964B53F820300C3353F8313023F0FA
:102BF0000804924B53F820300C3343F8314000E086
:102C000000BF00BF10BD70B504460D461646062E27
:102C10007ED2DFE806F0035BF7F8A2F5874850F8AC
:102C20002400406D20F00100844951F824104865CB
:102C3000824850F82400D0F8800020F001007F493D
:102C400051F82410C1F880007C4850F82400006836
:102C500020F02000794951F824100860774850F896
:102C600024000C3050F8350040F03001734850F823
:102C700024000C3040F83510002229462046FFF78A
:102C800080FF00231A4629462046FFF720FF002335
:102C9000012229462046FFF71AFF00230222294677
:102CA0002046FFF714FF0023032229462046FFF7A2
:102CB0000EFF0023042229462046FFF708FF0023C9
:102CC000052229462046FFF702FFD4E15B4850F871
:102CD0002400406D20F00100584951F82410486547
:102CE000564850F82400D0F8800020F001005349E5
:102CF00051F82410C1F88000504850F824000068B2
:102D000040F020004D4951F824100860002300E0F5
:102D1000B0E11A4629462046FFF7D9FE00230122DA
:102D200029462046FFF7D3FE0023022229462046EB
:102D3000FFF7CDFE0023032229462046FFF7C7FEFA
:102D40000023042229462046FFF7C1FE0023052266
:102D500029462046FFF7BBFE8DE1384850F8240095
:102D6000D0F8800020F00100344951F82410C1F857
:102D70008000324850F82400406D20F001002F49B7
:102D800051F8241048652D4850F82400006820F0C0
:102D900020002A4951F824100860284850F82400DF
:102DA0000C3050F8350020F03001244850F8240051
:102DB0000C3040F8351000231A4629462046FFF70C
:102DC00086FE0023012229462046FFF780FE0023CD
:102DD000022229462046FFF77AFE002303222946D5
:102DE0002046FFF774FE0023042229462046FFF701
:102DF0006EFE0023052229462046FFF768FE3AE1D1
:102E0000E9E000E076E00D4850F82400D0F88000BA
:102E100020F00100094951F82410C1F8800007484A
:102E200050F82400006820F02000044951F82410D4
:102E30000860024804E0000038CC00001CCC000010
:102E400050F82400406D40F00400FE4951F8241071
:102E50004865FC4850F82400406D40F00100F949F5
:102E600051F8241048650123002229462046FFF727
:102E70002EFE01231A4629462046FFF728FE00238E
:102E8000022229462046FFF722FE0023032229467C
:102E90002046FFF71CFE0123042229462046FFF7A7
:102EA00016FE0023052229462046FFF710FEE548BE
:102EB00050F824000C3050F8350040F03001E14863
:102EC00050F824000C3040F83510002229462046E6
:102ED000FFF757FE0320DB4951F824108865D948D5
:102EE00050F82400806D40F08000D64951F824103D
:102EF0008865C0E0D34850F82400D0F8800020F066
:102F00000100D04951F82410C1F88000CD4850F894
:102F10002400006820F02000CA4951F824100860FD
:102F2000C84850F82400406D40F00400C54951F8ED
:102F300024104865C34850F82400406D40F001005B
:102F4000C04951F824104865012300222946204633
:102F5000FFF7BDFD0023012229462046FFF7B7FDFC
:102F60000023022229462046FFF7B1FD0023032259
:102F700029462046FFF7ABFD0123042229462046BF
:102F8000FFF7A5FD0023052229462046FFF79FFDF8
:102F9000AC4850F824000C3050F8350040F03001B7
:102FA000A84850F824000C3040F83510002229467B
:102FB0002046FFF7E6FD0320A24951F8241088655A
:102FC000A04850F82400806D40F080009D4951F8E1
:102FD000241088654FE09B4850F82400D0F880000A
:102FE00040F00100974951F82410C1F8800095483D
:102FF00050F82400006820F02000924951F8241075
:103000000860904850F82400406D40F004008D495D
:1030100051F8241048658B4850F82400406D40F06A
:103020000100884951F824104865012300222946EF
:103030002046FFF74CFD0023012229462046FFF7DA
:1030400046FD0023022229462046FFF740FD0023CB
:10305000032229462046FFF73AFD00230422294691
:103060002046FFF734FD0023052229462046FFF7BE
:103070002EFD00E000BF00BF70BDF7B50E4617463D
:103080006C46217801F0070004224FF6FF71FFF72C
:10309000D3FC217801F0070005220021FFF7B3FDE2
:1030A00016B1012E48D123E0207800F007006549D1
:1030B00051F82000D0F8800020F02000217801F0A5
:1030C0000701604A52F82110C1F88000207800F012
:1030D0000700114651F82000D0F8800020F01000C1
:1030E000217801F0070152F82110C1F8800024E096
:1030F000207800F00700534951F82000D0F88000F4
:1031000040F02000217801F007014E4A52F82110CA
:10311000C1F88000207800F00700114651F8200027
:10312000D0F8800040F01000217801F0070152F83B
:103130002110C1F8800000E000BF00BF17B1012FCF
:1031400026D112E0207800F007003E4951F8200017
:10315000D0F8800020F00800217801F00701394AFA
:1031600052F82110C1F8800013E0207800F0070029
:10317000344951F82000D0F8800040F00800217850
:1031800001F007012F4A52F82110C1F8800000E039
:1031900000BF00BF002523E02388C3F38212C3F3DE
:1031A00044232B44D9B22378C3F3C200FEF740F87E
:1031B0002288C2F344222A44D1B22278C2F3C20048
:1031C0000122FEF75AF82288C2F344222A44D1B2DF
:1031D0002278C2F3C2000122FEF7A0F8681CC5B233
:1031E0002068C0F38430A842D6DC207800F00700C5
:1031F000FEBD144B53F82030D3F88030C3F3800366
:103200001370104B53F820305B689BB20B60704713
:1032100000210C4A52F820205160704770B51346C7
:10322000084C54F82040A4685C4342F21075B4FB8B
:10323000F5F2044C54F82040646E04F0013494B369
:103240000C4601E01CCC000001EBD4756D10A1EB25
:10325000450585B10026F64C54F820400C344D1E2F
:1032600004EBC5046660F24C54F820400C3404EBC7
:10327000C10462600FE00025ED4C54F820400C348E
:1032800004EBC1046560EA4C54F820400C344D1C3A
:1032900004EBC50462604FF0FF34E54D55F8205053
:1032A000C5F8984007E0FFE7E14C54F820400C34A3
:1032B00004EBC104626070BD2DE9F74F82B08A460D
:1032C0009146002702AC00250DE02388C3F382124B
:1032D000C3F344232B44D9B22378C3F3C200FDF7D0
:1032E000A7FF681CC5B22068C0F38430A842ECDC9C
:1032F0004FF6FF700190012001F086FD8046B8FB7B
:10330000F9F04FF6FF71B0FBF1F6B8FBF9F0B0FB46
:10331000F6F0B0F5803F00D3761C00251CE00120BC
:10332000A840301A03D50120A840801B02E00120EC
:10333000A840301A019988420CD22F460120A8409B
:10334000301A03D50120A840801B02E00120A840CC
:10335000301A0190681CC5B2072DE0DB0120B8408F
:10336000B04201DA781CC7B2072F00DD0727012021
:10337000B840B8FBF0F0B0FBF9F0A0F1010B2178F8
:1033800001F007003A465946FFF756FBBAF1000F25
:1033900006D0BAF1010F0DD0BAF1020F1ED113E021
:1033A0002268C2F3C441227802F007000022FFF72E
:1033B0002AFC14E02268C2F3C441227802F007001C
:1033C0000222FFF720FC0AE02268C2F3C4412278FF
:1033D00002F007000322FFF716FC00E000BF00BF69
:1033E0002268C2F3C441227802F0070041F2883219
:1033F000FFF714FF207800F007008D4951F82000F6
:10340000006820F01800217801F00701884A52F87E
:1034100021100860207800F00700114651F82000C4
:10342000006840F00800217801F0070152F82110EF
:103430000860207800F00700114651F8200000686D
:1034400020F00700217801F0070152F821100860F0
:10345000207800F00700114651F82000006807F0BE
:1034600007010843217801F0070152F82110086094
:10347000207800F0070005B0BDE8F08F73B50E4668
:103480006C4600250CE02388C3F38212C3F3442367
:103490002B44D9B22378C3F3C200FDF7C9FE6D1CDB
:1034A0002068C0F38430A842EDD8217801F00700ED
:1034B00032464FF6FF71FFF7BFFA207800F00700A1
:1034C0005B4951F82000006820F01800217801F0D5
:1034D0000701574A52F821100860207800F00700D1
:1034E000114651F82000006840F00800217801F0F2
:1034F000070152F821100860207800F007001146FB
:1035000051F82000006820F00700217801F0070141
:1035100052F821100860207800F00700114651F899
:103520002000006840F00200217801F0070152F805
:10353000211008602268C2F3C441227802F007001B
:103540000422FFF760FB7CBD10B5394B53F82030E7
:103550000C3353F8313023F00C04354B53F8203042
:103560000C3343F8314022B1012A1FD0022A49D13D
:1035700039E02F4B53F820300C3353F8313023F01F
:1035800008042B4B53F820300C3343F83140284BC0
:1035900053F820300C3353F8313043F00404244BFB
:1035A00053F820300C3343F831402CE0204B53F8D3
:1035B00020300C3353F8313043F008041C4B53F8DF
:1035C00020300C3343F83140194B53F820300C3382
:1035D00053F8313023F00404154B53F820300C33EA
:1035E00043F831400FE0124B53F820300C3353F8BE
:1035F000313043F00C040E4B53F820300C3343F8B9
:10360000314000E000BF00BF10BD0246084850F83E
:1036100022000C3000EBC10040687047044A52F8A9
:1036200020205160704711B1024A42F820107047C3
:103630001CCC0000FC1A002030B511297ED2DFE836
:1036400001F009202122232425262748494A4B4CF2
:103650004D4E4F0052B17C4B53F820301B6843F065
:103660004003794C54F82040236009E0764B53F82E
:1036700020301B6823F04003734C54F82040236033
:103680007EE000BF00BF00BF00BF00BF00BF00BFA3
:103690007AB16D4B53F820300C334C1E53F8343054
:1036A00043F04005684B53F820300C3343F8345056
:1036B0000EE0654B53F820300C334C1E53F8343079
:1036C00023F04005604B53F820300C3343F834505E
:1036D00056E000BF00BF00BF00BF00BF00BF00BF7B
:1036E00092B1594B53F820400C34A1F1090354F81E
:1036F000333043F04005544B53F820400C34A1F1D3
:10370000090344F8335011E04F4B53F820400C3478
:10371000A1F1090354F8333023F040054A4B53F824
:1037200020400C34A1F1090344F83350A2B1464BB8
:1037300053F820400C34A1F1090300E01FE054F8D5
:10374000333043F00105404B53F820400C34A1F1D5
:10375000090344F8335011E03B4B53F820400C343C
:10376000A1F1090354F8333023F00105364B53F827
:1037700020400C34A1F1090344F8335000E000BFAD
:1037800000BF324C235603F01F050124AC405D09F5
:10379000AD0005F1E025C5F8004100BF30BD02468F
:1037A000294850F822000C3050F83100C0F3C01006
:1037B000704770B50446264850F8240018B12449D3
:1037C00051F824008047204850F82400006800F099
:1037D000C00048B11C4850F82400006820F0800068
:1037E000194951F824100860002517E0164850F8D0
:1037F00024000C3050F8350000F0C00068B11248C9
:1038000050F824000C3050F8350020F080010E48AC
:1038100050F824000C3040F835106D1C0D4850F85D
:103820002400A842E2D870BD10B50020FFF7C1FF08
:1038300010BD10B50120FFF7BCFF10BD10B5022070
:10384000FFF7B7FF10BD00001CCC000068CC0000E3
:10385000FC1A00202CCC00002DE9FF4F82B004465A
:103860008C46DDF810B0FC4850F82400006800F0E9
:10387000004018B9002006B0BDE8F08F4FF0FF32CD
:103880004FF000084FF00009012001900020009047
:10389000002126E000231FE0012518E0EF4850F842
:1038A0002100DFF8BCE35EF823E000FB0EFE059884
:1038B0006843B0FBFEF6B34508D3ABEB060A5245AE
:1038C00004D9524688469946009601956D1C032DF1
:1038D00001D2002AE2D15B1C102B01D2002ADBD1DD
:1038E000491C042901D2002AD4D1DB4850F8240015
:1038F0000C3050F82C70DB4807400198401E58B13E
:103900004FF4403000EA084040F0004009F00F0E4C
:1039100040EA0E00074308E04FF4403000EA084058
:1039200009F00F0E40EA0E000743CB4850F8240080
:103930000C3040F82C7000989DE72DE9F05F0646AA
:103940000C4617469846DDE90A9AC34850F82650B7
:1039500005F10C0050F8240020F0F04105F10C00B6
:1039600040F8241050F82400A8F101014FF0F04273
:1039700002EAC161084305F10C0141F82400B9F1E4
:10398000000F03D0B9F1010F16D10AE005F10C00C8
:1039900050F8240020F0807105F10C0040F824104C
:1039A0000BE005F10C0050F8240040F0807105F1A7
:1039B0000C0040F8241000E000BF00BF37B1012F19
:1039C00017D0022F28D0032F4CD138E005F10C007E
:1039D00050F8240020F0806105F10C0040F824101C
:1039E00050F8240020F0007105F10C0040F824107C
:1039F00039E005F10C0050F8240020F0806105F159
:103A00000C0040F8241050F8240040F0007105F13B
:103A10000C0040F8241026E005F10C0050F82400BA
:103A200040F0806105F10C0040F8241050F82400AB
:103A300020F0007105F10C0040F8241013E005F1AE
:103A40000C0050F8240040F0806105F10C0040F8B3
:103A5000241050F8240040F0007105F10C0040F8EB
:103A6000241000E000BF00BF012001F0CDF9834623
:103A7000E1B25B4652463046FFF7EEFE05F10C0020
:103A800050F824007849084305F10C0141F824005E
:103A9000BDE8F09F7CB505466F49286851F8204085
:103AA000286800EB4000714951F82000006829683F
:103AB00001EB41016D4A02EB810149680843296825
:103AC00001EB410152F821100860206840F001002C
:103AD0002060287910B101280AD104E0206840F064
:103AE0000040206005E0206820F00040206000E0F9
:103AF00000BF00BF206820F48040206020685C493F
:103B000008432060A979A868CDE900106B79EA79AB
:103B1000E9682868FFF711FF4FF0FF30E062206886
:103B200020F0010020607CBDF7B584B00E4617463A
:103B300004AC02978DF8076008208DF80500207806
:103B400000F00700009000208DF804008DF80600BA
:103B5000039000250CE02388C3F38212C3F34423AF
:103B60002B44D9B22378C3F3C200FDF761FB6D1C6F
:103B70002068C0F38430A842EDD86846FFF78AFF7A
:103B8000207800F0070007B0F0BD334A52F820203B
:103B9000126822F48042304B53F820301A6051B141
:103BA0002D4A52F82020126822F400522A4B53F872
:103BB00020301A6009E0284A52F82020126842F4A6
:103BC0000052254B53F820301A607047224A52F8B1
:103BD0002020126822F480421F4B53F820301A60D4
:103BE00051B11D4A52F82020126822F480521A4B1B
:103BF00053F820301A6009E0174A52F82020126862
:103C000042F48052144B53F820301A60704770B55C
:103C100003460C46104951F8230024B1012C2BD047
:103C2000022C53D13DE022B1016B41F00041016310
:103C300003E0016B21F0004101630E4DE95601F0F4
:103C40001F060125B5404E09B60006F1E026C6F86C
:103C5000005100BF3BE000006CCC0000A0CC000095
:103C6000B0CC0000F0FFFC7F0011500078CC0000C9
:103C7000013C3F009CCC000022B1016B41F000717F
:103C8000016303E0016B21F00071016322B1016B5C
:103C900041F08071016303E0016B21F080710163E9
:103CA00015E022B1016B41F40031016303E0016BC7
:103CB00021F40031016322B1016B41F480310163D1
:103CC00003E0016B21F48031016300E000BF00BF1D
:103CD00070BD11B1304A42F820107047F0B504466B
:103CE000059D4FF0004000EAC5704FF0E04606EA3F
:103CF0000176304301269E404FF47C1707EA0646C2
:103D0000304396B23043254E56F824607063234802
:103D100050F82400006B00F0004090B900BF1F482D
:103D200050F82400C06A00F000400028F7D01B487B
:103D300050F82400C06A40F00040184E56F8246045
:103D4000F062164850F82400806B80B2F0BD10B5C8
:103D50000446124850F82400C06A40F000400F4961
:103D600051F82410C8620C4850F8240018B10A49D0
:103D700051F82400804710BD10B50020FFF7E7FF81
:103D800010BD10B50120FFF7E2FF10BD10B50220F5
:103D9000FFF7DDFF10BD00000C1B00206CCC000005
:103DA0008A4909680968894A52681143874A126832
:103DB00011600021864A11605160916011460968C6
:103DC00021F0010111601146096821F00401116020
:103DD0001146096821F00201116005215160018836
:103DE00091601146096841F00101116070477749FF
:103DF00009680968754A52681143744A126811606B
:103E00000021734A1160516091601146096821F0E8
:103E1000010111601146096821F004011160114689
:103E2000096841F00201116005215160018891602B
:103E3000817821B1012907D0022913D10BE064490F
:103E40000968634A11600EE06149096841F0100198
:103E50005F4A116007E05E49096841F020015C4A51
:103E6000116000E000BF00BFC17811B101290ED17F
:103E700006E05749096821F00801554A116007E03A
:103E80005349096841F00801514A116000E000BF40
:103E900000BF4F49096841F001014D4A1160704768
:103EA00010B50246494800680068484B5B681843F3
:103EB000464B1B68186071B1464B93F9000000F047
:103EC0001F040123A3404409A40004F1E024C4F822
:103ED000003100BF00BF72B931B13D48006840F009
:103EE00040003B4B186005E03948006820F0400076
:103EF000374B186000E000BF00BF10BD33490968B0
:103F00000968324A52681143304A1268116008B198
:103F10003149086070472E490C3141F23420086065
:103F20002B48C06880B2704731B582B002AC4FF602
:103F3000FF70ADF804002068C0F3C440012802D02F
:103F4000022808D103E001208DF8060004E00220D9
:103F50008DF8060000E000BF00BF00208DF80700CC
:103F600000250CE02388C3F38212C3F344232B44BF
:103F7000D9B22378C3F3C200FDF75AF96D1C20684B
:103F8000C0F38430A842EDD801A8FFF730FF2078B5
:103F900000F007003EBD0E48006820F001000C490B
:103FA00008600846006840F001000860704710B5DE
:103FB0000748006840F0800005490860064800682E
:103FC00010B105490868804710BD0000F4CC00001E
:103FD00000000440F0CC0000CC00002010B50146E9
:103FE000F84AD26B42F00202F64BDA631A46126CC0
:103FF00042F002021A640878F34AD268012383402F
:104000009A43F14BDA604A7802F03F02EF4B1B68AB
:104010001A548A7912B1012A12D108E0EB4A1268C7
:10402000125C22F04002E94B1B681A5409E0E74A8F
:104030001268125C42F04002E44B1B681A5400E024
:1040400000BF00BF0023E24A02EB4012D380E04AE7
:1040500002EB401293834A88DD4B03EB40139A60D6
:104060008A88C2F30E03DA4A02EB4012D3828A88AE
:10407000C2F30E03D64A02EB4012D383D44A02EBBA
:104080004012CB6813600A8993B2D14A02EB401206
:104090009380CF4A02EB4012D3880A7C4FF4E0644D
:1040A00004EA02221343CA4A02EB4012D380C84AF0
:1040B00002EB4012D2880B7E4FF4784404EAC3230B
:1040C0001A43C34B03EB4013DA80C14B03EB40139D
:1040D0004A69DA60BE4A02EB40120B6A13618A8BAE
:1040E00093B2BB4A02EB40129382B94A02EB4012F0
:1040F000D28891F8243003F007031A43B44B03EB42
:104100004013DA80B24A02EB4012D38891F82C2097
:10411000F82404EAC2021343AD4A02EB4012D380F2
:10412000AB4B03EB40138A6A9A61A94A02EB401237
:10413000928B42F00803A64A02EB40129383A34AF3
:104140001268125C42F08002A04B1B681A5410BD2A
:10415000202200210FE0012088409E4B1B68184060
:1041600040B9012088409B4B1B681843994B18604D
:1041700008467047491C9142EDD30020F9E7012120
:104180008140944A12688A4392490A607047014606
:104190008F4800EB4110C08AC0F30E0070478C4A74
:1041A00002EB4012D28AD30BDB03894A02EB4012A6
:1041B000D382874A02EB4012D28AC1F30E031A431C
:1041C000834B03EB4013DA82704700F00F017E4A05
:1041D000D176704700F00F017B4A9176704751B15C
:1041E0007B4A02EB4012928B42F00803784A02EBC2
:1041F0004012938309E0764A02EB4012928B22F040
:104200000803734A02EB40129383704710B50AB358
:104210006F4B03EB40139B8B43F020046C4B03EB81
:1042200040139C836A4B03EB40139B8B23F4706415
:10423000674B03EB40139C83654B03EB40139B8B55
:104240004FF4706404EA01242343614C04EB4014EE
:10425000A38309E05E4B03EB40139B8B23F0200408
:104260005B4B03EB40139C8310BD30B50B466AB12A
:10427000594C215601F01F050124AC404D09AD00F9
:1042800005F1E025C5F8004100BF00BF13B1012BC7
:104290002ED116E052B14E4901EB4011898B41F00D
:1042A00004044B4901EB40118C8309E0484901EBC0
:1042B0004011898B21F00404454901EB40118C83A6
:1042C00017E052B1424901EB4011898B41F00204E1
:1042D0003F4901EB40118C8309E03D4901EB40115E
:1042E000898B21F002043A4901EB40118C8300E0F4
:1042F00000BF00BF30BD11B1384A42F820107047EE
:1043000001463148C06801228A40104070B13048EF
:1043100000EB4110808B00F0800028B101F00F000D
:10432000294A1077002070470120FCE701F00F00B8
:10433000254A10770020F6E7254A02EB401211616A
:1043400070470146224800EB411000697047204A3F
:1043500002EB40121160704701461D4800EB41100E
:10436000006870471848006840F40030164908603B
:10437000704710B5044604F00F001349C87717487A
:1043800050F8240018B1154951F82400804710BD99
:1043900010B50020FFF7EDFF10BD10B50120FFF7AD
:1043A000E8FF10BD10B50220FFF7E3FF10BD10B508
:1043B0000320FFF7DEFF10BD10B50420FFF7D9FF83
:1043C00010BD0000008004400080004000CD0000CF
:1043D00000900040D000002004CD0000181B0020F9
:1043E00010B50520FFF7C5FF10BD10B50620FFF77B
:1043F000C0FF10BD10B50720FFF7BBFF10BD10B503
:104400000820FFF7B6FF10BD10B50920FFF7B1FF78
:1044100010BD10B50A20FFF7ACFF10BD10B50B2082
:10442000FFF7A7FF10BD10B50C20FFF7A2FF10BDCE
:1044300010B50D20FFF79DFF10BD10B50E20FFF742
:1044400098FF10BD10B50F20FFF793FF10BD0000BF
:10445000F0B503460D46591E002604E0F44850F816
:1044600026000244761CAE42F8DB022D10DD4FF42C
:10447000C87093FBF0F400FB143040B103F003006C
:1044800030B9642093FBF0F400FB143000B1521CEF
:10449000642091FBF0F00C46CF1701EB977701EB0E
:1044A000A707381A4FF4C87791FBF7F73844104440
:1044B000072790FBF7FC07FB1C00F0BD10B5028836
:1044C000A2F2B27240F26D135A430A600288D31707
:1044D00002EB93739B10A3F5F6730C6823440B60F7
:1044E0004388D44C34F813300A681A440A6083882D
:1044F0000A681A440A60027802F003022AB9428864
:10450000022A02D80A68521E0A60CB4B0A685A4334
:10451000C388C3EB4314C4EB032302EB03120389E8
:10452000C3EB031302EB8302837A1A440A600A681E
:10453000521C0A6010BDF0B505462A68BE4FB2FB9A
:10454000F7F3B2FBF7FC07FB1C224FF46167B2FBE9
:10455000F7F7CF804FF46167B2FBF7FC07FB1C2233
:104560003C27B2FBF7F70F813C27B2FBF7FC07FBB8
:104570001C278F7240F2B2770F8040F26D160CE06C
:104580009B1B0F887F1C0F800F7807F0030717B164
:1045900040F26D1601E04FF4B776B342F0D80F78D1
:1045A00007F003070FB1A54C00E0A54C012007E080
:1045B000275C9F4201D3488004E0275CDB1B401C42
:1045C0000C28F5D900BF8B80F0BD38B5044604B97E
:1045D00038BD9C480068009021466846FFF7ABFF55
:1045E00000BFF5E79748006808B101207047002038
:1045F000FCE738B5044604B938BD69462046FFF7E4
:104600005DFF0098401E8F49886000BFF4E78D4A27
:10461000D26822F47F428B4BDA601A46D26822F0CD
:10462000FF02DA601A46D2684FF47F4303EA0023A0
:104630001A43844BDA601A46D268CBB21A43814BD4
:10464000DA60704708B58049C96B41F000517E4A75
:10465000D1637C49496921F010017A4A51611146C0
:10466000096921F4807111610178012906D00229BC
:104670000BD0032910D004291CD114E07149096919
:1046800041F400516F4A116115E06E49096941F426
:1046900080516C4A11610EE06A49096941F4006178
:1046A000684A116107E06749096941F48061654A18
:1046B000116100E000BF00BF6249096941F48071E7
:1046C000604A11610021009102E00099491C0091AB
:1046D0000099B1F5C02FF8D35A49496941F010014A
:1046E000584A516108BD08B5012000906846FFF79F
:1046F000A9FF08BD5348006870475248806870475A
:1047000038B5044604B938BD69462046FFF7D6FEE1
:104710004C48406920F010004A4948610098086000
:104720000846406940F01000486100BFEBE745498A
:10473000496921F01001434A5161114608604969F5
:1047400041F010015161704770B505460C4614B137
:104750002E2000F061F89DB1012D02D0022D30D144
:104760001DE034B13748C06940F002003549C861E6
:1047700005E03448C06920F002003249C86121E0F8
:1047800034B13048C06940F004002E49C86105E0EA
:104790002C48C06920F004002A49C86112E02F208B
:1047A00000F03AF834B12748C06940F010002549BC
:1047B000C86105E02348C06920F010002149C861A4
:1047C00000E000BF00BF70BD08B12049086070471D
:1047D00010B51E48006810B11C4908688047194888
:1047E000C06900F0020040B11648406900F00200C4
:1047F00018B114480068134908601248C06900F0F5
:10480000040040B10F48406900F0040018B10D48A1
:1048100080680C49886010BD00F01F0201219140A2
:104820004209920002F1E022C2F800117047000034
:10483000D80000202ECD00008051010014CD0000D2
:1048400021CD000000D0034000800440D4000020AF
:10485000F94900E0491C01F00F02002AFAD1F74A99
:104860001160F74900E0491C01F00F02002AFAD15B
:10487000F44A1160002011E00022F04B1B6803EBAA
:1048800040135A80ED4B1B6803EB40131A8018222B
:10489000EA4B1B6803EB40139A60401C0028EBD0E6
:1048A000E94900E0491C01F00F02002AFAD100207A
:1048B00021E08022E34B1B6803EB40131A800022A7
:1048C000E04B1B6803EB40135A800ABADD4B1B68B0
:1048D00003EB40135A6001F2EE510022D94B1B68E2
:1048E00003EB40131A614FF40042D64B1B6803EBF5
:1048F00040139A60401C0028DBD0D04A126812880E
:1049000042F02002CD4B1B681A80CE4A12681288F2
:1049100042F02002CB4B1B681A80704770B50346EB
:104920004FF0FF31002212E09C5C00250CE004F007
:10493000010001F00106704018B14908C348414028
:1049400000E0490864106D1C082DF0DB521C062A9B
:10495000EADB880E70BD70B50446207800066178E9
:1049600040EA0140A17840EA0120E1780843B849D3
:10497000086020790006617940EA0140B449E439D1
:10498000C1F8E8002046FFF7C9FF0546202D0CDBE3
:10499000AF4834300068A5F1200101228A4010435D
:1049A000AB49E439C1F8180109E0A948383000687A
:1049B0000121A9400843A649E439C1F81C0170BD92
:1049C00070B5A448C06A40F00100A249C862002046
:1049D000A1490860012000F017FA05464FF47A70EB
:1049E000B5FBF0F04FF47A71B0FBF1F460000521F3
:1049F000B0FBF1F0401C7E2101EA40009449E4390B
:104A0000486470BD70B503460C460020904DE43DEF
:104A10006D6845F400058E4EE43E75604FF0786594
:104A200005EAC35545F0A0454FF4F80606EA84466A
:104A3000354345F4003596B23543854EE43E356442
:104A4000002107E0824DE43D6D6805F4000505B1E5
:104A500003E0491C814DA942F4D300BF01B90120F4
:104A60007B4DE43D6D6845F40005794EE43E75608C
:104A700070BD70B503460C460020754DE43D6D6871
:104A800045F40005724EE43E75604FF0786505EA26
:104A9000C35545F0C0454FF4F80606EA8446354351
:104AA00045F400356A4EE43E3564002107E0684D68
:104AB000E43D6D6805F4000505B103E0491C674D50
:104AC000A942F4D300BF01B90120614DE43D2D6C32
:104AD00015805F4DE43D6D6845F400055C4EE43E95
:104AE000756070BD38B504465A48C06A40F0010090
:104AF0005849C86200205849086001205449E439E7
:104B000048620020009005E000BFBDF80000401C96
:104B100080B20090BDF800006428F5DBFFF750FF7D
:104B2000FFF796FE4E48407820F004004C4948704C
:104B30004C48007840F080004A49087000200090FE
:104B40004349383108604249E439C1F81801404905
:104B500040310860091F08602068FFF7FCFE4248EA
:104B60003B49603908600020394920390860607984
:104B700080B137486038006840F002003449E439B9
:104B8000C1F884000846D0F8C40020F00400C1F841
:104B9000C4000FE02E486038006820F002002C4965
:104BA000E439C1F884000846D0F8C40040F004009D
:104BB000C1F8C400207948B125486038006840F445
:104BC00000702349E439C1F8840008E020486038C7
:104BD000006820F400701E49E439C1F884001C48C4
:104BE000A430006843F6F07108431949E439C1F86C
:104BF000880114480068C1F8800110480068144911
:104C0000A03108604FF0FF301149E4394860084690
:104C1000406A40F0020048624FF08070086138BD81
:104C200070B504460D4605480068008800F0800015
:104C3000E0B1042070BD0000581B002008010020D6
:104C4000881B00200C010020B81B00202083B8ED39
:104C5000E4000C400080044000D00040FFFF010051
:104C600000400640005006400441EE0520BA61496C
:104C7000096848602846FBF761FC5E49096848807E
:104C800000205C490968086160205A490968886009
:104C9000AC205849096808804FF080705649486137
:104CA000C000486000BF5448406800F00060002821
:104CB000F9D0002070BD10B550480068008800F0A1
:104CC000800028B94D4909684888FBF737FC10BDBA
:104CD0000020FCE770B505460024484800680088BD
:104CE00000F08000D8B9454909684888FBF726FCE0
:104CF00084B242480068406801BA2246284604F05F
:104D000032FD3E480068008840F080003B49096859
:104D100008804FF0807038490861204670BD00203F
:104D2000FCE710B5044634B1012C0BD0022C10D096
:104D3000032C1ED115E03048806820F000602E4919
:104D4000886017E02C48806820F000702A4988604D
:104D500010E0532000F043F84FF0006026498860CF
:104D600008E0542000F03BF84FF0007022498860C2
:104D700000E000BF00BF10BD08B1214908607047C6
:104D800008B12049086070471B48406800F0006087
:104D900038B11948406840F0006017494860012068
:104DA00070470020FCE710B51348406840F00060F1
:104DB000114948601248006810B1114908688047DD
:104DC00010BD10B50C48406840F000700A494860BA
:104DD0000C48006810B10B490868804710BD00F00E
:104DE0001F02012191404209920002F1E022C2F823
:104DF000001170470801002000000C400C01002049
:104E0000100100201401002070B505460024FBF7B6
:104E1000DBFB5348406C012101EB107051490968DC
:104E200000FB01F435B1012D0CD0032D12D0042D5F
:104E300019D117E04A48406C012101EB1070B4FB16
:104E4000F0F412E04648406CC0F30360401CB4FB31
:104E5000F0F40AE04248406CC0F30340401CB4FB4D
:104E6000F0F402E001E0002400BF00BF204670BD66
:104E70003D49097841F0FF013B4A11703B490968FF
:104E800041F00401394A116028B11146096841F026
:104E90000201116005E03549096821F00201334A39
:104EA000116030BF70470146086870472C49086E92
:104EB000C96D48402A49896D4840704703B5684626
:104EC00002680A600CBD2948EC30006840F0807030
:104ED0002649EC3108602648006840F0010024496A
:104EE0000860704730B50146214C62681D4C24684B
:104EF000204DB4FBF5F404FB01F3D018904205D922
:104F000000BF1B4C64688442FBD309E000BF184C0F
:104F100064688442FBD800BF154C64688442FBD3AC
:104F200030BD10B504464FF47A7104FB01F0FFF771
:104F3000D9FF10BD00B5FFF7C6FF00BD10B5044690
:104F40002046FFF7EEFF10BD10B504462046FFF7E0
:104F5000C9FF10BD704710B5FFF7FCFF10BD000082
:104F6000008004400000002000E0074010ED00E059
:104F7000001000E040420F0008B50020009009E05A
:104F800000BF0098401C00904CF2503100988842BD
:104F900000D905E0FE48406A00F003000028EFD188
:104FA00000BF08BD2DE9F04303460C4680260F27BD
:104FB0004FF0FF35022112E001200DE001FB00FC63
:104FC0000CFB04FCACEB0302002A04DB954202D983
:104FD00015460E460746401C1028EFD94900B1F58A
:104FE000807FE9D9DFF8A8C3DCF82CC02CF0080CCE
:104FF000DFF89C83C8F82CC0C446DCF82CC0DFF86E
:1050000094830CEA080CDFF88883C8F82CC04FEAB8
:10501000560C4FF47F4808EA0C2C4CF4602CA7F196
:1050200001084FF0F00909EA08184CEA080C4CEAAC
:10503000000CDFF85C83C8F82CC000BFDFF850C359
:10504000DCF824C00CF0080CBCF1000FF6D0DFF83F
:1050500040C3DCF82CC04CF0080CDFF83483C8F8EF
:105060002CC0BDE8F08308B501460022009200BFC5
:10507000009A521C009200BFC54A126B02EA01005E
:105080004CF25033009A9A4200D901E00028EFD048
:1050900000BF08BD70B504462568FFF76DFFC5F376
:1050A0008150022801D145F40015E06808B145F4AB
:1050B00000152089C0F30C00A189B74A02EA01411A
:1050C00040EA0106E068012805D945F4001545F0DD
:1050D000020545F02005AE48006BB0490843AC49D5
:1050E00008636068886008464660C560AC48FFF7A2
:1050F000BAFF012808D0A648006BA84980390843A8
:10510000A3490863022070BD05F4403048B1A048AF
:10511000006920619E48416961618169A161C1693D
:10512000E1610020EFE770B58AB00020099000250A
:1051300000269748C06A40F000609549C86200BFE9
:105140009348C06A00F000600028F9D101900290F5
:1051500004904FF40070039001A8FFF79BFFC4B2C6
:1051600014B101200AB070BD8E4801904FF4D57083
:1051700002900020049001A8FFF78CFFC4B2002C1D
:1051800000DD012404B9012600BF0020099002E0DF
:105190000998401C09900998B0F57A7FF8D36D1CE6
:1051A0008148019000200290049001A8FFF772FF4F
:1051B000C4B27E48019016B17D48029002E04FF4DF
:1051C0004010029001A8FFF765FFC4B2059800F0F7
:1051D000004010B9B5F5967FD7D3B5F5967F01D1CC
:1051E0000120BFE77348019000200290049001A8BD
:1051F000FFF750FFC4B20CB10120B3E76E49059828
:1052000088606D480699C1600799016108994161FC
:105210006A48019000200290049001A8FFF73AFF2D
:10522000C4B20CB101209DE70598000C62490885C5
:10523000634801900846008D00040290002004900D
:1052400001A8FFF727FFC4B20CB101208AE75A4931
:105250000598886158480699C161079901620899C3
:105260004162584801905448008D0004029000208B
:10527000049001A8FFF70EFFC4B20CB1012071E742
:10528000514801904FF4007002900020049001A852
:10529000FFF700FFC4B20CB1012063E74248019060
:1052A0004548008D000402900020049001A8FFF7FB
:1052B000F1FEC4B20CB1012054E744480190022031
:1052C00002900020049001A8FFF7E4FEC4B20CB1E4
:1052D000012047E72E48806A20F006002C498862AA
:1052E0000846806A40F0020088623348406AC0F392
:1052F000815018B103203049086002E002202E4995
:10530000086000202EE770B5044631480068006848
:105310002F49496808432E49096808602D481C49EF
:10532000C86200BF1A48C06A00F080700028F9D136
:105330002020174988624FF0801048642648406852
:1053400020F04050244948600846406848600020EA
:10535000FFF75AFD054628462168FFF723FE4FF068
:10536000FF300B4908634863002070BD38B5044620
:1053700000941A48006820F00100184908600422CF
:1053800000211046FBF754FF04220121104627E0BC
:1053900000100B400F00F0FF0000FFFF81000F0026
:1053A00001000E0000001A0800001A370000022950
:1053B0000000304000000902B821002000001A035C
:1053C0000000090900001B0700001A1000001A065F
:1053D00048CD0000008000010080044000D0004063
:1053E000FBF726FF042202211046FBF721FF0422CF
:1053F00003211046FBF71CFF042211461046FBF761
:1054000017FF042205211046FBF712FF012200219D
:105410000420FBF732FF012211460420FBF72DFF89
:10542000012202210420FBF728FF0122032104208E
:10543000FBF723FF012204210846FBF71EFF012290
:1054400005210420FBF719FF6846FFF75CFFFFF713
:105450006AFE38BD2DE9F04788B006460F4614466F
:1054600087480068022800D176021CB9002008B0E5
:10547000BDE8F087012C02D18248009001E082480B
:10548000009001964FF40070029003947F48006BE7
:1054900040F002007D4908636846FFF7FBFD0546C2
:1054A0000DB10420E3E7B9464FF0000817E007F01C
:1054B000030090B900BF7548406A00F400600028FE
:1054C000F9D04FF0800A05E07048006A49F8040BF3
:1054D000AAF1010ABAF1000FF6D108F10108A045BE
:1054E000E5D30DB10420C2E70020C0E72DE9F04765
:1054F00088B006460F46144661480068022800D16D
:1055000076021CB9002008B0BDE8F087012C02D15A
:105510005F48009001E05F48009001964FF40070F2
:10552000029003945948006B40F002005749086309
:105530006846FFF7AFFD85B20DB10420E3E7B94639
:105540004FF000081BE007F00300A0B900BF4F4870
:10555000406A00F480600028F9D04FF0800A07E02C
:1055600059F8040B49490862AAF101001FFA80FAB0
:10557000BAF1000FF4D108F101001FFA80F8A0453C
:10558000E1D30DB10420BEE700BF434800903C4882
:10559000008D000401900020039004906846FFF7FE
:1055A00079FD85B205B105E03C490498084000B199
:1055B00006E000BF049800F4F850B0F5106FE4D195
:1055C00000BF00209FE770B504460D460122294622
:1055D0002046FFF73FFF70BD70B504460D4601221F
:1055E00029462046FFF782FF70BD30B5244C646A1F
:1055F000C4F3815464B1224C246A220E204CE46925
:105600006FF07F4505EA1424601C441C600830BD1F
:105610001B4CA48BC4F3C2135C1C022505FA04F3D3
:10562000174C94F8204004F00301154CE46940F64F
:10563000FF7505EA945404EB8121491C5943104C31
:10564000248CC4F30322541E022505FA04F201FB44
:1056500002F0000D00BFDAE770B504460D461646AD
:10566000324629462046FFF7F5FE70BD70B5044668
:105670000D461646324629462046FFF737FF70BDD5
:10568000B821002010003A1136003A1200100B40E9
:1056900000003A1826003A1900001A0D0880D9FFB8
:1056A000014609B9002070470120FCE7014609B90D
:1056B000002070470120FCE72DE9F04104468846B0
:1056C00015461E4644B9324641462846FFF7C4FFF8
:1056D00000273846BDE8F0810420FBE72DE9F041C2
:1056E0000446884615461E4644B932464146284679
:1056F000FFF7BCFF00273846BDE8F0810420FBE738
:105700002DE9F04106460F461546F6B937B1012F8F
:105710000FD0022F04D0032F11D106E0002410E097
:105720004FF40070288000240BE00820288000241B
:1057300007E0FFF75AFFC0022860002401E00424BC
:1057400000BF00BF2046BDE8F0810420FBE7002039
:1057500070470000014648780A7842EA0020704706
:105760000146C8788A7842EA00204A7842EA002056
:105770000A7842EA0020704700F8011B091200F87D
:10578000011B704700F8011B090A00F8011B090AF8
:1057900000F8011B090A00F8011B704730B50346E9
:1057A0000C463AB100BF14F8015B03F8015B551ECB
:1057B0002A00F8D130BD10B5034600BF03F8011B25
:1057C000541E2200FAD110BDF0B503461D460C460A
:1057D000002000BF15F8017B14F801CBA7EB0C00EB
:1057E000561E320001D00028F4D0F0BD024600E081
:1057F000521C107810B110788842F9D11078704797
:105800000146F848007888420FDCF6484078884224
:1058100001DB01207047F3488078884205DCF148BD
:10582000C078884201DB0120F4E70020F2E701465E
:10583000EC480079884219DCEA484079884201DB6B
:1058400001207047E7488079884205DCE548C07947
:10585000884201DB0120F4E7E248007A884205DC57
:10586000E048407A884201DB0120EAE70020E8E7CF
:1058700070B504460025E078E8B16078012304F1B2
:105880003001E26AFFF72AFFA0B90020E070216A28
:10589000E06A401AA16988420DD2A07802280AD194
:1058A000A369E16ACA186078012304F13001FFF7A7
:1058B00015FF00E00125284670BD70B504460D4671
:1058C0000026E06AA84210D02046FFF7D1FF064626
:1058D0005EB9607801232A4604F13001FFF7ECFE3F
:1058E00010B14FF0FF350126E562304670BD70B54E
:1058F00004462046FFF7BCFF0546002D38D120782E
:1059000003282ED1207901282BD14202002104F155
:105910003000FFF750FF4AF6552104F22E20FFF722
:105920002BFFB14904F13000FFF72CFFAF4904F51C
:105930000570FFF727FF04F506702169FFF722FFC6
:1059400004F50770E168FFF71DFFE069401CE062A5
:105950006078012304F13001E26AFFF7BFFE002006
:105960002071607800221146FFF7CAFE00B10125C0
:10597000284670BD0246891E5069801E884201D8A3
:10598000002070475389906A03FB0100F9E72DE975
:10599000F04781460C46D9F80050022C02D36869C2
:1059A000A04202D84FF001085EE04FF0FF3828789F
:1059B000012804D002282CD0032851D13CE02646EF
:1059C00006EB5606286A00EB56212846FFF775FFBE
:1059D00000B148E03046761CC0F3080105F1300004
:1059E000475C286A00EB56212846FFF766FF00B1A6
:1059F00039E0C6F3080105F13000405C47EA0027B2
:105A000004F0010008B1380901E0C7F30B0080463B
:105A100029E0286A00EB14212846FFF74EFF00B169
:105A200021E040F2FF1101EA440205F13001501873
:105A3000FFF790FE804616E0286A00EBD411284656
:105A4000FFF73BFF00B10EE040F2FF1101EA8402D4
:105A500005F130015018FFF783FE20F0704802E096
:105A60004FF0010800BF00BF4046BDE8F0872DE9B8
:105A7000F04704460D4616464FF00209022D74D336
:105A80006069A84271D92078012804D0022849D041
:105A900003280DD15EE02F4607EB5707206A00EB85
:105AA00057212046FFF709FF8146B9F1000F00D0CA
:105AB00075E038467F1CC0F3080104F1300001EBAB
:105AC000000805F0010028B1F1B298F8000061F378
:105AD0001F1000E0304688F800000120E070206AC6
:105AE00000EB57212046FFF7E8FE8146B9F1000F91
:105AF00000D054E0C7F3080104F1300001EB0008C6
:105B000005F0010010B1C6F3071006E098F8000098
:105B100000F0F000C6F30321084388F800000120DC
:105B2000E0703CE0206A00EB15212046FFF7C5FE3F
:105B30008146B9F1000F00D031E0B1B240F2FF125E
:105B400002EA450304F130029818FFF715FE012020
:105B5000E07024E0206A00EBD5112046FFF7ADFE8F
:105B60008146B9F1000F01D019E019E040F2FF11B0
:105B700001EA850204F130015018FFF7F1FD66F3E8
:105B80001B00064640F2FF1101EA850204F13001D4
:105B900050183146FFF7F6FD0120E07000BF00BF4E
:105BA0004846BDE8F0872DE9F04781460E46174686
:105BB0004FF00008D9F80040022E02D36069B042CD
:105BC00002D80220BDE8F08797B100BF4FF0FF3246
:105BD00039462046FFF74BFF8046B8F1000F07D04B
:105BE0004046EFE754CD000052526141727241616C
:105BF00000BF31464846FFF7CAFE054605B922E018
:105C0000012D01D10220DDE7681C08B90120D9E788
:105C1000002231462046FFF72AFF8046B8F1000FE8
:105C200001D04046CEE7D4E90410801E814206D25E
:105C30002069401C2061207940F0010020712E462F
:105C40006069B042D5D800BF0020BBE72DE9F0471E
:105C500082468846DAF80040B8F1000F06D1E768BE
:105C600017B16069B84215D8012713E04146504684
:105C7000FFF78DFE0546022D02D20120BDE8F08718
:105C8000681C08B92846F9E76069A84201D9284686
:105C9000F4E74746206908B90020EFE700264745AA
:105CA00018D17E1C6069B04200D8022631465046A9
:105CB000FFF76DFE0546012D01D0681C08B9284686
:105CC000DCE73DB1E568022D03D36069A84200D945
:105CD0002F460026E6B93E4600BF761C6069B042FA
:105CE00004D80226BE4201D90020C7E731465046FB
:105CF000FFF74DFE054605B909E0012D01D0681CEE
